:100000000C9434000C9451000C9451000C94510049
:100010000C9451000C9451000C9451000C94A505C3
:100020000C9451000C9451000C9451000C9451000C
:100030000C9451000C9451000C9451000C945100FC
:100040000C9451000C9451000C9481050C945100B7
:100050000C9451000C9451000C9451000C945100DC
:100060000C9451000C94510011241FBECFEFD8E026
:10007000DEBFCDBF11E0A0E0B1E0ECECFFE002C0DC
:1000800005900D92A632B107D9F721E0A6E2B1E0C2
:1000900001C01D92A734B207E1F70E9422060C941A
:1000A000E4070C9400008AB18E7F8AB98AB182601D
:1000B0008AB9E0ECF0E01082808182608083E1EC1C
:1000C000F0E01082808188698083E2ECF0E01082A9
:1000D0008081866080838FEC90E09093C500809350
:1000E000C4000895AC0120E007C09091C00095FFC6
:1000F000FCCF3093C6002F5FFA01E20FF11D308173
:100100003A3099F70895ECE7F0E01082808180643E
:10011000808380818F778083808180628083EAE71B
:10012000F0E0108280818068808380818760808396
:10013000EEE7F0E08081806280838081806180834F
:100140000895ECE7F0E09081907F90839081892B77
:100150008083EAE7F0E080818064808380917A0088
:1001600086FDFCCF8091790090E008958AB18B7F65
:100170008AB98BB184608BB98AB1877F8AB98BB118
:1001800088608BB98AB18F7E8AB98BB180618BB957
:100190008AB18F778AB98BB180688BB984B18E7F31
:1001A00084B985B1816085B984B1806184B987B132
:1001B000816087B987B1826087B987B1846087B968
:1001C0000895CF93DF93CDB7DEB728970FB6F89495
:1001D000DEBF0FBECDBF85B1806185B988B18E7F8E
:1001E00088B988B18D7F88B988B18B7F88B96091D3
:1001F0003A0170913B0148E050E0CE0101960E9427
:10020000BC0729813A8130934201209341018B81BF
:100210009C8190933E0180933D018D819E819093BE
:100220004501809344018F8198859093400180938C
:100230003F01ABEABAEA0E94AD079695879596957D
:1002400087950E945C078FE39CE90197F1F700C056
:10025000000020913D0130913E01ABEABAEA0E94D4
:10026000AD0796958795969587950E945E078FE3D3
:100270009CE90197F1F700C0000020914401309102
:100280004501ABEABAEA0E94AD0796958795969527
:1002900087950E94A1078FE39CE90197F1F700C0C1
:1002A000000020913F0130914001ABEABAEA0E9480
:1002B000AD0796958795969587950E94A7078FE33A
:1002C0009CE90197F1F700C0000028960FB6F8945A
:1002D000DEBF0FBECDBFDF91CF910895CF93DF93E7
:1002E000CDB7DEB728970FB6F894DEBF0FBECDBFEF
:1002F00085B18F7E85B988B18E7F88B988B18D7FB1
:1003000088B988B1846088B9609104017091050151
:1003100048E050E0CE0101960E94BC0729813A8155
:1003200030934201209341018B819C8190933E0147
:1003300080933D018D819E8190934501809344017E
:100340008F8198859093400180933F01ABEABAEA90
:100350000E94AD0796958795969587950E945C07B4
:100360008FE39CE90197F1F700C0000020913D0167
:1003700030913E01ABEABAEA0E94AD0796958795A7
:10038000969587950E945E078FE39CE90197F1F7A8
:1003900000C000002091440130914501ABEABAEA67
:1003A0000E94AD0796958795969587950E94A1071F
:1003B0008FE39CE90197F1F700C0000020913F0115
:1003C00030914001ABEABAEA0E94AD079695879555
:1003D000969587950E94A7078FE39CE90197F1F70F
:1003E00000C0000028960FB6F894DEBF0FBECDBF48
:1003F000DF91CF910895CF93DF93CDB7DEB72897E4
:100400000FB6F894DEBF0FBECDBF85B18F7E85B924
:1004100088B18E7F88B988B1826088B988B18B7FB6
:1004200088B9609102017091030148E050E0CE016B
:1004300001960E94BC0729813A81309342012093A2
:1004400041018B819C8190933E0180933D018D8180
:100450009E8190934501809344018F81988590936C
:10046000400180933F01ABEABAEA0E94AD0796953E
:100470008795969587950E945C078FE39CE9019785
:10048000F1F700C0000020913D0130913E01ABEA40
:10049000BAEA0E94AD0796958795969587950E9432
:1004A0005E078FE39CE90197F1F700C000002091FF
:1004B000440130914501ABEABAEA0E94AD07969536
:1004C0008795969587950E94A1078FE39CE90197F0
:1004D000F1F700C0000020913F0130914001ABEAEC
:1004E000BAEA0E94AD0796958795969587950E94E2
:1004F000A7078FE39CE90197F1F700C00000289659
:100500000FB6F894DEBF0FBECDBFDF91CF91089537
:10051000CF93DF93CDB7DEB728970FB6F894DEBF41
:100520000FBECDBF85B18F7E85B988B1816088B996
:1005300088B18D7F88B988B18B7F88B960910001BF
:100540007091010148E050E0CE0101960E94BC0785
:1005500029813A8130934201209341018B819C8112
:1005600090933E0180933D018D819E819093450142
:10057000809344018F8198859093400180933F013F
:10058000ABEABAEA0E94AD0796958795969587954E
:100590000E945C078FE39CE90197F1F700C000001F
:1005A00020913D0130913E01ABEABAEA0E94AD07CD
:1005B00096958795969587950E945E078FE39CE9AF
:1005C0000197F1F700C000002091440130914501EE
:1005D000ABEABAEA0E94AD079695879596958795FE
:1005E0000E94A1078FE39CE90197F1F700C000008A
:1005F00020913F0130914001ABEABAEA0E94AD0779
:1006000096958795969587950E94A7078FE39CE915
:100610000197F1F700C0000028960FB6F894DEBFEE
:100620000FBECDBFDF91CF9108954B9B7CC04C9BFB
:100630007AC04F9B78C0189B76C086E00E94A100CC
:1006400090934201809341018FE39CE90197F1F778
:1006500000C000002091410130914201ABEABAEAAA
:100660000E94AD0796958795969587950E945C07A1
:1006700087E00E94A10090933E0180933D018FE3AB
:100680009CE90197F1F700C0000020913D013091F5
:100690003E01ABEABAEA0E94AD079695879596951A
:1006A00087950E945E0785E00E94A1009093450116
:1006B000809344018FE39CE90197F1F700C00000AB
:1006C0002091440130914501ABEABAEA0E94AD079E
:1006D00096958795969587950E94A10784E00E943C
:1006E000A1009093400180933F018FE39CE9019723
:1006F000F1F700C0000020913F0130914001ABEACA
:10070000BAEA0E94AD0796958795969587950E94BF
:10071000A7079FE728E381E0915020408040E1F760
:1007200000C0000082CF089585B1806185B988B18D
:100730008E7F88B988B18D7F88B988B18B7F88B961
:100740002FEF83EC99E0215080409040E1F700C00A
:10075000000088B1846088B988B18E7F88B988B17B
:100760008D7F88B985B18F7E85B92FEF83EC99E0B5
:10077000215080409040E1F700C0000088B18260C5
:1007800088B988B18E7F88B988B18B7F88B985B1E7
:100790008F7E85B92FEF83EC99E021508040904007
:1007A000E1F700C0000088B1816088B988B18B7F13
:1007B00088B988B18D7F88B985B18F7E85B92FEFD3
:1007C00083EC99E0215080409040E1F700C00000A8
:1007D00088B18E7F88B988B18B7F88B988B18D7FC9
:1007E00088B985B18F7E85B92FEF83EC99E02150D0
:1007F00080409040E1F700C0000088B1816088B976
:1008000088B1846088B988B1826088B985B1806117
:1008100085B92FEF83EC99E0215080409040E1F7BB
:1008200000C000000E9415030895CF93DF93CDB759
:10083000DEB728970FB6F894DEBF0FBECDBF88B1E4
:10084000816088B988B1846088B988B1826088B9CC
:1008500085B18F7E85B90E94150386E00E94A100B4
:10086000909342018093410187E00E94A100909300
:100870003E0180933D0185E00E94A10090934501D7
:100880008093440184E00E94A100909340018093F2
:100890003F0120914101309142013A832983209107
:1008A0003D0130913E013C832B83209144013091E6
:1008B00045013E832D8398878F8360913A01709123
:1008C0003B0148E050E0CE0101960E94CC072896FB
:1008D0000FB6F894DEBF0FBECDBFDF91CF91089564
:1008E000CF93DF93CDB7DEB728970FB6F894DEBF6E
:1008F0000FBECDBF88B1816088B988B18B7F88B9C0
:1009000088B1826088B985B1806185B90E9415037C
:1009100086E00E94A100909342018093410187E00C
:100920000E94A10090933E0180933D0185E00E94CA
:10093000A100909345018093440184E00E94A100AE
:100940009093400180933F012091410130914201F9
:100950003A83298320913D0130913E013C832B83D2
:1009600020914401309145013E832D8398878F83E8
:10097000609104017091050148E050E0CE010196BC
:100980000E94CC0728960FB6F894DEBF0FBECDBFED
:10099000DF91CF910895CF93DF93CDB7DEB728973E
:1009A0000FB6F894DEBF0FBECDBF88B1816088B9A5
:1009B00088B1846088B988B18D7F88B985B180613C
:1009C00085B90E94150386E00E94A1009093420120
:1009D0008093410187E00E94A10090933E018093A3
:1009E0003D0185E00E94A100909345018093440160
:1009F00084E00E94A1009093400180933F012091E8
:100A00004101309142013A83298320913D01309187
:100A10003E013C832B8320914401309145013E836C
:100A20002D8398878F83609102017091030148E0C4
:100A300050E0CE0101960E94CC0728960FB6F8949C
:100A4000DEBF0FBECDBFDF91CF910895CF93DF936F
:100A5000CDB7DEB728970FB6F894DEBF0FBECDBF77
:100A600088B18E7F88B988B1846088B988B1826086
:100A700088B985B1806185B90E94150386E00E941E
:100A8000A100909342018093410187E00E94A10060
:100A900090933E0180933D0185E00E94A1009093D8
:100AA00045018093440184E00E94A100909340019D
:100AB00080933F0120914101309142013A83298383
:100AC00020913D0130913E013C832B8320914401D4
:100AD000309145013E832D8398878F83609100017B
:100AE0007091010148E050E0CE0101960E94CC07D0
:100AF00028960FB6F894DEBF0FBECDBFDF91CF9121
:100B000008951F920F920FB60F9211248F93EF93B7
:100B1000FF93E6ECF0E08081809343018081809335
:100B200046018091C00085FFFCCF80914301E6EC37
:100B3000F0E08083809146018083FF91EF918F9157
:100B40000F900FBE0F901F9018951F920F920FB627
:100B50000F9211248F939F93AF93BF9380912A019B
:100B60008823A1F08091260190912701A09128016E
:100B7000B09129010196A11DB11D8093260190938A
:100B80002701A0932801B093290147C08091340127
:100B90008823A1F08091300190913101A091320120
:100BA000B09133010196A11DB11D80933001909346
:100BB0003101A0933201B09333012FC080912F01F6
:100BC0008823A1F080912B0190912C01A0912D01FF
:100BD000B0912E010196A11DB11D80932B01909320
:100BE0002C01A0932D01B0932E0117C080913901E3
:100BF000882399F08091350190913601A0913701B9
:100C0000B09138010196A11DB11D809335019093DB
:100C10003601A0933701B0933801BF91AF919F91F6
:100C20008F910F900FBE0F901F90189582E08093C8
:100C3000B00099EF9093B3008093700084E08093AC
:100C4000B100089560E074E080E00E94320760E047
:100C500074E080E00E94490760E074E080E00E9458
:100C6000600760E074E080E00E9483070E94B600A5
:100C70000E9453000E9483000E941606789486E02A
:100C80000E94A10087E00E94A10085E00E94A100CF
:100C900084E00E94A10085B18F7E85B988B18E7FE6
:100CA00088B988B18D7F88B988B18B7F88B986E093
:100CB00091E00E9472008091C600813319F40E9475
:100CC000E10014C08091C600823319F40E946E01C5
:100CD0000DC08091C600833319F40E94FB0106C049
:100CE0008091C600843311F40E9488024A9B0E94BE
:100CF00094034B992CC080913401811112C081E082
:100D0000809334011092300110923101109232011F
:100D10001092330106C08FE39CE90197F1F700C000
:100D200000004B9BF8CF10923401809130019091DC
:100D30003101A0913201B0913301883B9B40A10564
:100D4000B10518F00E94150402C00E94E1004C9900
:100D50002CC080912F01811112C081E080932F015E
:100D600010922B0110922C0110922D0110922E0145
:100D700006C08FE39CE90197F1F700C000004C9B8F
:100D8000F8CF10922F0180912B0190912C01A0910E
:100D90002D01B0912E01883B9B40A105B10518F0B3
:100DA0000E94700402C00E946E014F992CC0809175
:100DB0003901811112C081E080933901109235010F
:100DC00010923601109237011092380106C08FE35D
:100DD0009CE90197F1F700C000004F9BF8CF1092FB
:100DE00039018091350190913601A0913701B09180
:100DF0003801883B9B40A105B10518F00E94CB0447
:100E000002C00E94FB01189956CF80912A018111DE
:100E100012C081E080932A011092260110922701CE
:100E2000109228011092290106C08FE39CE90197D6
:100E3000F1F700C00000189BF8CF10922A018091B2
:100E4000260190912701A0912801B0912901883BAA
:100E50009B40A105B10518F00E9426052CCF0E94E9
:100E6000880229CF9AB190649AB914BC882321F0E2
:100E700084B5806C84BD03C084B5806884BD84B5AE
:100E8000836084BD6115744019F485B5856085BDA6
:100E900008959AB190629AB9882321F084B580634D
:100EA00084BD03C084B5806284BD84B5836084BD85
:100EB00085B5856085BD089587BD089588BD089571
:100EC00094B1926094B910928000882331F0E0E8E8
:100ED000F0E08081806C808305C0E0E8F0E08081F4
:100EE00080688083E0E8F0E0808181608083E1E8D1
:100EF000F0E08081886080836115744019F48081FE
:100F000085608083089594B1946094B9882331F00A
:100F1000E0E8F0E080818063808305C0E0E8F0E0F5
:100F2000808180628083E0E8F0E08081816080835E
:100F3000E1E8F0E080818860808380818560808343
:100F4000089590E09093890080938800089590E040
:100F500090938B0080938A000895A29FB001B39F65
:100F6000C001A39F700D811D1124911DB29F700DB2
:100F7000811D1124911D0895DC01CB01FC01F9991B
:100F8000FECF06C0F2BDE1BDF89A319600B40D92D5
:100F900041505040B8F70895DC01CB0103C02D91BA
:100FA0000E94D70741505040D0F70895262FF99955
:100FB000FECF1FBA92BD81BD20BD0FB6F894FA9A3C
:0C0FC000F99A0FBE01960895F894FFCF37
:100FCC000D0064000100456C696A6120756E61203A
:100FDC00706F73696369F36E2064656C20312061F6
:060FEC006C20340A000035
:00000001FF
